{
  "contractName": "DateTime",
  "abi": [
    {
      "constant": true,
      "inputs": [
        {
          "name": "year",
          "type": "uint16"
        }
      ],
      "name": "isLeapYear",
      "outputs": [
        {
          "name": "",
          "type": "bool"
        }
      ],
      "payable": false,
      "stateMutability": "pure",
      "type": "function",
      "signature": "0xa6f0e577"
    },
    {
      "constant": true,
      "inputs": [
        {
          "name": "year",
          "type": "uint256"
        }
      ],
      "name": "leapYearsBefore",
      "outputs": [
        {
          "name": "",
          "type": "uint256"
        }
      ],
      "payable": false,
      "stateMutability": "pure",
      "type": "function",
      "signature": "0xb1999937"
    },
    {
      "constant": true,
      "inputs": [
        {
          "name": "month",
          "type": "uint8"
        },
        {
          "name": "year",
          "type": "uint16"
        }
      ],
      "name": "getDaysInMonth",
      "outputs": [
        {
          "name": "",
          "type": "uint8"
        }
      ],
      "payable": false,
      "stateMutability": "pure",
      "type": "function",
      "signature": "0xb238ad0e"
    },
    {
      "constant": true,
      "inputs": [
        {
          "name": "timestamp",
          "type": "uint256"
        }
      ],
      "name": "getYear",
      "outputs": [
        {
          "name": "",
          "type": "uint16"
        }
      ],
      "payable": false,
      "stateMutability": "pure",
      "type": "function",
      "signature": "0x92d66313"
    },
    {
      "constant": true,
      "inputs": [
        {
          "name": "timestamp",
          "type": "uint256"
        }
      ],
      "name": "getMonth",
      "outputs": [
        {
          "name": "",
          "type": "uint8"
        }
      ],
      "payable": false,
      "stateMutability": "pure",
      "type": "function",
      "signature": "0xa324ad24"
    },
    {
      "constant": true,
      "inputs": [
        {
          "name": "timestamp",
          "type": "uint256"
        }
      ],
      "name": "getDay",
      "outputs": [
        {
          "name": "",
          "type": "uint8"
        }
      ],
      "payable": false,
      "stateMutability": "pure",
      "type": "function",
      "signature": "0x65c72840"
    },
    {
      "constant": true,
      "inputs": [
        {
          "name": "timestamp",
          "type": "uint256"
        }
      ],
      "name": "getHour",
      "outputs": [
        {
          "name": "",
          "type": "uint8"
        }
      ],
      "payable": false,
      "stateMutability": "pure",
      "type": "function",
      "signature": "0x3e239e1a"
    },
    {
      "constant": true,
      "inputs": [
        {
          "name": "timestamp",
          "type": "uint256"
        }
      ],
      "name": "getMinute",
      "outputs": [
        {
          "name": "",
          "type": "uint8"
        }
      ],
      "payable": false,
      "stateMutability": "pure",
      "type": "function",
      "signature": "0xfa93f883"
    },
    {
      "constant": true,
      "inputs": [
        {
          "name": "timestamp",
          "type": "uint256"
        }
      ],
      "name": "getSecond",
      "outputs": [
        {
          "name": "",
          "type": "uint8"
        }
      ],
      "payable": false,
      "stateMutability": "pure",
      "type": "function",
      "signature": "0x8aa001fc"
    },
    {
      "constant": true,
      "inputs": [
        {
          "name": "timestamp",
          "type": "uint256"
        }
      ],
      "name": "getWeekday",
      "outputs": [
        {
          "name": "",
          "type": "uint8"
        }
      ],
      "payable": false,
      "stateMutability": "pure",
      "type": "function",
      "signature": "0x4ac1ad78"
    },
    {
      "constant": true,
      "inputs": [
        {
          "name": "year",
          "type": "uint16"
        },
        {
          "name": "month",
          "type": "uint8"
        },
        {
          "name": "day",
          "type": "uint8"
        }
      ],
      "name": "toTimestamp",
      "outputs": [
        {
          "name": "timestamp",
          "type": "uint256"
        }
      ],
      "payable": false,
      "stateMutability": "pure",
      "type": "function",
      "signature": "0x8c8d98a0"
    },
    {
      "constant": true,
      "inputs": [
        {
          "name": "year",
          "type": "uint16"
        },
        {
          "name": "month",
          "type": "uint8"
        },
        {
          "name": "day",
          "type": "uint8"
        },
        {
          "name": "hour",
          "type": "uint8"
        }
      ],
      "name": "toTimestamp",
      "outputs": [
        {
          "name": "timestamp",
          "type": "uint256"
        }
      ],
      "payable": false,
      "stateMutability": "pure",
      "type": "function",
      "signature": "0x7f791833"
    },
    {
      "constant": true,
      "inputs": [
        {
          "name": "year",
          "type": "uint16"
        },
        {
          "name": "month",
          "type": "uint8"
        },
        {
          "name": "day",
          "type": "uint8"
        },
        {
          "name": "hour",
          "type": "uint8"
        },
        {
          "name": "minute",
          "type": "uint8"
        }
      ],
      "name": "toTimestamp",
      "outputs": [
        {
          "name": "timestamp",
          "type": "uint256"
        }
      ],
      "payable": false,
      "stateMutability": "pure",
      "type": "function",
      "signature": "0x62ba9687"
    },
    {
      "constant": true,
      "inputs": [
        {
          "name": "year",
          "type": "uint16"
        },
        {
          "name": "month",
          "type": "uint8"
        },
        {
          "name": "day",
          "type": "uint8"
        },
        {
          "name": "hour",
          "type": "uint8"
        },
        {
          "name": "minute",
          "type": "uint8"
        },
        {
          "name": "second",
          "type": "uint8"
        }
      ],
      "name": "toTimestamp",
      "outputs": [
        {
          "name": "timestamp",
          "type": "uint256"
        }
      ],
      "payable": false,
      "stateMutability": "pure",
      "type": "function",
      "signature": "0x9054bdec"
    }
  ],
  "bytecode": "0x610dbf610030600b82828239805160001a6073146000811461002057610022565bfe5b5030600052607381538281f3fe73000000000000000000000000000000000000000030146080604052600436106100e7576000357c0100000000000000000000000000000000000000000000000000000000900463ffffffff1680633e239e1a146100ec5780634ac1ad781461013457806362ba96871461017c57806365c72840146101f65780637f7918331461023e5780638aa001fc146102ab5780638c8d98a0146102f35780639054bdec1461035357806392d66313146103da578063a324ad2414610424578063a6f0e5771461046c578063b1999937146104b6578063b238ad0e146104f8578063fa93f88314610551575b600080fd5b6101186004803603602081101561010257600080fd5b8101908080359060200190929190505050610599565b604051808260ff1660ff16815260200191505060405180910390f35b6101606004803603602081101561014a57600080fd5b81019080803590602001909291905050506105c6565b604051808260ff1660ff16815260200191505060405180910390f35b6101e0600480360360a081101561019257600080fd5b81019080803561ffff169060200190929190803560ff169060200190929190803560ff169060200190929190803560ff169060200190929190803560ff1690602001909291905050506105ed565b6040518082815260200191505060405180910390f35b6102226004803603602081101561020c57600080fd5b8101908080359060200190929190505050610609565b604051808260ff1660ff16815260200191505060405180910390f35b6102956004803603608081101561025457600080fd5b81019080803561ffff169060200190929190803560ff169060200190929190803560ff169060200190929190803560ff16906020019092919050505061061f565b6040518082815260200191505060405180910390f35b6102d7600480360360208110156102c157600080fd5b810190808035906020019092919050505061063a565b604051808260ff1660ff16815260200191505060405180910390f35b61033d6004803603606081101561030957600080fd5b81019080803561ffff169060200190929190803560ff169060200190929190803560ff169060200190929190505050610650565b6040518082815260200191505060405180910390f35b6103c4600480360360c081101561036957600080fd5b81019080803561ffff169060200190929190803560ff169060200190929190803560ff169060200190929190803560ff169060200190929190803560ff169060200190929190803560ff16906020019092919050505061066b565b6040518082815260200191505060405180910390f35b610406600480360360208110156103f057600080fd5b8101908080359060200190929190505050610912565b604051808261ffff1661ffff16815260200191505060405180910390f35b6104506004803603602081101561043a57600080fd5b81019080803590602001909291905050506109bd565b604051808260ff1660ff16815260200191505060405180910390f35b61049c6004803603602081101561048257600080fd5b81019080803561ffff1690602001909291905050506109d3565b604051808215151515815260200191505060405180910390f35b6104e2600480360360208110156104cc57600080fd5b8101908080359060200190929190505050610a54565b6040518082815260200191505060405180910390f35b6105356004803603604081101561050e57600080fd5b81019080803560ff169060200190929190803561ffff169060200190929190505050610a8d565b604051808260ff1660ff16815260200191505060405180910390f35b61057d6004803603602081101561056757600080fd5b8101908080359060200190929190505050610b59565b604051808260ff1660ff16815260200191505060405180910390f35b60006018603c80848115156105aa57fe5b048115156105b457fe5b048115156105be57fe5b069050919050565b60006007600462015180848115156105da57fe5b04018115156105e557fe5b069050919050565b60006105fe8686868686600061066b565b905095945050505050565b600061061482610b7a565b604001519050919050565b60006106308585858560008061066b565b9050949350505050565b6000603c8281151561064857fe5b069050919050565b6000610662848484600080600061066b565b90509392505050565b6000806107b290505b8761ffff168161ffff1610156106b75761068d816109d3565b156106a0576301e28500820191506106aa565b6301e13380820191505b8080600101915050610674565b6106bf610d1b565b601f816000600c811015156106d057fe5b602002019060ff16908160ff16815250506106ea896109d3565b1561071657601d816001600c8110151561070057fe5b602002019060ff16908160ff1681525050610739565b601c816001600c8110151561072757fe5b602002019060ff16908160ff16815250505b601f816002600c8110151561074a57fe5b602002019060ff16908160ff1681525050601e816003600c8110151561076c57fe5b602002019060ff16908160ff1681525050601f816004600c8110151561078e57fe5b602002019060ff16908160ff1681525050601e816005600c811015156107b057fe5b602002019060ff16908160ff1681525050601f816006600c811015156107d257fe5b602002019060ff16908160ff1681525050601f816007600c811015156107f457fe5b602002019060ff16908160ff1681525050601e816008600c8110151561081657fe5b602002019060ff16908160ff1681525050601f816009600c8110151561083857fe5b602002019060ff16908160ff1681525050601e81600a600c8110151561085a57fe5b602002019060ff16908160ff1681525050601f81600b600c8110151561087c57fe5b602002019060ff16908160ff1681525050600191505b8760ff168261ffff1610156108d457806001830361ffff16600c811015156108b657fe5b602002015160ff166201518002830192508180600101925050610892565b6001870360ff166201518002830192508560ff16610e1002830192508460ff16603c02830192508360ff168301925082925050509695505050505050565b600080600090506000806301e133808581151561092b57fe5b046107b261ffff160191506109456107b261ffff16610a54565b6109528361ffff16610a54565b039050806301e285000283019250806107b2830361ffff16036301e1338002830192505b848311156109b25761098a600183036109d3565b1561099d576301e28500830392506109a7565b6301e13380830392505b600182039150610976565b819350505050919050565b60006109c882610b7a565b602001519050919050565b60008060048361ffff168115156109e657fe5b0661ffff161415156109fb5760009050610a4f565b600060648361ffff16811515610a0d57fe5b0661ffff16141515610a225760019050610a4f565b60006101908361ffff16811515610a3557fe5b0661ffff16141515610a4a5760009050610a4f565b600190505b919050565b600060018203915061019082811515610a6957fe5b04606483811515610a7657fe5b04600484811515610a8357fe5b0403019050919050565b600060018360ff161480610aa4575060038360ff16145b80610ab2575060058360ff16145b80610ac0575060078360ff16145b80610ace575060088360ff16145b80610adc5750600a8360ff16145b80610aea5750600c8360ff16145b15610af857601f9050610b53565b60048360ff161480610b0d575060068360ff16145b80610b1b575060098360ff16145b80610b295750600b8360ff16145b15610b3757601e9050610b53565b610b40826109d3565b15610b4e57601d9050610b53565b601c90505b92915050565b6000603c8083811515610b6857fe5b04811515610b7257fe5b069050919050565b610b82610d3f565b6000809050600080610b9385610912565b846000019061ffff16908161ffff1681525050610bb56107b261ffff16610a54565b610bc6856000015161ffff16610a54565b039150816301e285000283019250816107b285600001510361ffff16036301e1338002830192506000600191505b600c8260ff16111515610c4c57610c0f828660000151610a8d565b60ff1662015180029050858482011115610c3a5781856020019060ff16908160ff1681525050610c4c565b80840193508180600101925050610bf4565b600191505b610c6385602001518660000151610a8d565b60ff168260ff16111515610caa57858462015180011115610c955781856040019060ff16908160ff1681525050610caa565b62015180840193508180600101925050610c51565b610cb386610599565b856060019060ff16908160ff1681525050610ccd86610b59565b856080019060ff16908160ff1681525050610ce78661063a565b8560a0019060ff16908160ff1681525050610d01866105c6565b8560c0019060ff16908160ff168152505050505050919050565b61018060405190810160405280600c90602082028038833980820191505090505090565b60e060405190810160405280600061ffff168152602001600060ff168152602001600060ff168152602001600060ff168152602001600060ff168152602001600060ff168152602001600060ff168152509056fea165627a7a7230582057e7d77e60787e3c3a122d381b2f5d5666089b1f8f857a9b0b3457dbdebdbbba0029",
  "source": "pragma solidity ^0.5.0;\n\n// Note: This library was copied from https://github.com/pipermerriam/ethereum-datetime/blob/master/contracts/DateTime.sol\n\nlibrary DateTime {\n        /*\n         *  Date and Time utilities for ethereum contracts\n         *\n         */\n        struct _DateTime {\n                uint16 year;\n                uint8 month;\n                uint8 day;\n                uint8 hour;\n                uint8 minute;\n                uint8 second;\n                uint8 weekday;\n        }\n\n        uint constant DAY_IN_SECONDS = 86400;\n        uint constant YEAR_IN_SECONDS = 31536000;\n        uint constant LEAP_YEAR_IN_SECONDS = 31622400;\n\n        uint constant HOUR_IN_SECONDS = 3600;\n        uint constant MINUTE_IN_SECONDS = 60;\n\n        uint16 constant ORIGIN_YEAR = 1970;\n\n        function isLeapYear(uint16 year) public pure returns (bool) {\n                if (year % 4 != 0) {\n                        return false;\n                }\n                if (year % 100 != 0) {\n                        return true;\n                }\n                if (year % 400 != 0) {\n                        return false;\n                }\n                return true;\n        }\n\n        function leapYearsBefore(uint year) public pure returns (uint) {\n                year -= 1;\n                return year / 4 - year / 100 + year / 400;\n        }\n\n        function getDaysInMonth(uint8 month, uint16 year) public pure returns (uint8) {\n                if (month == 1 || month == 3 || month == 5 || month == 7 || month == 8 || month == 10 || month == 12) {\n                        return 31;\n                }\n                else if (month == 4 || month == 6 || month == 9 || month == 11) {\n                        return 30;\n                }\n                else if (isLeapYear(year)) {\n                        return 29;\n                }\n                else {\n                        return 28;\n                }\n        }\n\n        function parseTimestamp(uint timestamp) internal pure returns (_DateTime memory self) {\n                uint secondsAccountedFor = 0;\n                uint buf;\n                uint8 i;\n\n                // Year\n                self.year = getYear(timestamp);\n                buf = leapYearsBefore(self.year) - leapYearsBefore(ORIGIN_YEAR);\n\n                secondsAccountedFor += LEAP_YEAR_IN_SECONDS * buf;\n                secondsAccountedFor += YEAR_IN_SECONDS * (self.year - ORIGIN_YEAR - buf);\n\n                // Month\n                uint secondsInMonth;\n                for (i = 1; i <= 12; i++) {\n                        secondsInMonth = DAY_IN_SECONDS * getDaysInMonth(i, self.year);\n                        if (secondsInMonth + secondsAccountedFor > timestamp) {\n                                self.month = i;\n                                break;\n                        }\n                        secondsAccountedFor += secondsInMonth;\n                }\n\n                // Day\n                for (i = 1; i <= getDaysInMonth(self.month, self.year); i++) {\n                        if (DAY_IN_SECONDS + secondsAccountedFor > timestamp) {\n                                self.day = i;\n                                break;\n                        }\n                        secondsAccountedFor += DAY_IN_SECONDS;\n                }\n\n                // Hour\n                self.hour = getHour(timestamp);\n\n                // Minute\n                self.minute = getMinute(timestamp);\n\n                // Second\n                self.second = getSecond(timestamp);\n\n                // Day of week.\n                self.weekday = getWeekday(timestamp);\n        }\n\n        function getYear(uint timestamp) public pure returns (uint16) {\n                uint secondsAccountedFor = 0;\n                uint16 year;\n                uint numLeapYears;\n\n                // Year\n                year = uint16(ORIGIN_YEAR + timestamp / YEAR_IN_SECONDS);\n                numLeapYears = leapYearsBefore(year) - leapYearsBefore(ORIGIN_YEAR);\n\n                secondsAccountedFor += LEAP_YEAR_IN_SECONDS * numLeapYears;\n                secondsAccountedFor += YEAR_IN_SECONDS * (year - ORIGIN_YEAR - numLeapYears);\n\n                while (secondsAccountedFor > timestamp) {\n                        if (isLeapYear(uint16(year - 1))) {\n                                secondsAccountedFor -= LEAP_YEAR_IN_SECONDS;\n                        }\n                        else {\n                                secondsAccountedFor -= YEAR_IN_SECONDS;\n                        }\n                        year -= 1;\n                }\n                return year;\n        }\n\n        function getMonth(uint timestamp) public pure returns (uint8) {\n                return parseTimestamp(timestamp).month;\n        }\n\n        function getDay(uint timestamp) public pure returns (uint8) {\n                return parseTimestamp(timestamp).day;\n        }\n\n        function getHour(uint timestamp) public pure returns (uint8) {\n                return uint8((timestamp / 60 / 60) % 24);\n        }\n\n        function getMinute(uint timestamp) public pure returns (uint8) {\n                return uint8((timestamp / 60) % 60);\n        }\n\n        function getSecond(uint timestamp) public pure returns (uint8) {\n                return uint8(timestamp % 60);\n        }\n\n        function getWeekday(uint timestamp) public pure returns (uint8) {\n                return uint8((timestamp / DAY_IN_SECONDS + 4) % 7);\n        }\n\n        function toTimestamp(uint16 year, uint8 month, uint8 day) public pure returns (uint timestamp) {\n                return toTimestamp(year, month, day, 0, 0, 0);\n        }\n\n        function toTimestamp(uint16 year, uint8 month, uint8 day, uint8 hour) public pure returns (uint timestamp) {\n                return toTimestamp(year, month, day, hour, 0, 0);\n        }\n\n        function toTimestamp(uint16 year, uint8 month, uint8 day, uint8 hour, uint8 minute) public pure returns (uint timestamp) {\n                return toTimestamp(year, month, day, hour, minute, 0);\n        }\n\n        function toTimestamp(uint16 year, uint8 month, uint8 day, uint8 hour, uint8 minute, uint8 second) public pure returns (uint timestamp) {\n                uint16 i;\n\n                // Year\n                for (i = ORIGIN_YEAR; i < year; i++) {\n                        if (isLeapYear(i)) {\n                                timestamp += LEAP_YEAR_IN_SECONDS;\n                        }\n                        else {\n                                timestamp += YEAR_IN_SECONDS;\n                        }\n                }\n\n                // Month\n                uint8[12] memory monthDayCounts;\n                monthDayCounts[0] = 31;\n                if (isLeapYear(year)) {\n                        monthDayCounts[1] = 29;\n                }\n                else {\n                        monthDayCounts[1] = 28;\n                }\n                monthDayCounts[2] = 31;\n                monthDayCounts[3] = 30;\n                monthDayCounts[4] = 31;\n                monthDayCounts[5] = 30;\n                monthDayCounts[6] = 31;\n                monthDayCounts[7] = 31;\n                monthDayCounts[8] = 30;\n                monthDayCounts[9] = 31;\n                monthDayCounts[10] = 30;\n                monthDayCounts[11] = 31;\n\n                for (i = 1; i < month; i++) {\n                        timestamp += DAY_IN_SECONDS * monthDayCounts[i - 1];\n                }\n\n                // Day\n                timestamp += DAY_IN_SECONDS * (day - 1);\n\n                // Hour\n                timestamp += HOUR_IN_SECONDS * (hour);\n\n                // Minute\n                timestamp += MINUTE_IN_SECONDS * (minute);\n\n                // Second\n                timestamp += second;\n\n                return timestamp;\n        }\n}\n",
  "sourcePath": "/home/waseem/Documents/FinalProjectPOE/contracts/DateTime.sol",
  "compiler": {
    "name": "solc",
    "version": "0.5.0+commit.1d4f565a.Emscripten.clang"
  },
  "schemaVersion": "3.0.0",
  "updatedAt": "2019-01-25T17:05:17.590Z",
  "devdoc": {
    "methods": {}
  },
  "userdoc": {
    "methods": {}
  }
}