{
  "contractName": "ProofOfExistence",
  "abi": [
    {
      "constant": true,
      "inputs": [
        {
          "name": "",
          "type": "uint256"
        }
      ],
      "name": "owners",
      "outputs": [
        {
          "name": "",
          "type": "address"
        }
      ],
      "payable": false,
      "stateMutability": "view",
      "type": "function",
      "signature": "0x025e7c27"
    },
    {
      "constant": true,
      "inputs": [],
      "name": "x",
      "outputs": [
        {
          "name": "",
          "type": "uint256"
        }
      ],
      "payable": false,
      "stateMutability": "view",
      "type": "function",
      "signature": "0x0c55699c"
    },
    {
      "constant": true,
      "inputs": [
        {
          "name": "",
          "type": "uint256"
        }
      ],
      "name": "pictures",
      "outputs": [
        {
          "name": "fileHash",
          "type": "bytes32"
        },
        {
          "name": "fileName",
          "type": "string"
        },
        {
          "name": "fileOwner",
          "type": "address"
        },
        {
          "name": "year",
          "type": "uint256"
        },
        {
          "name": "month",
          "type": "uint256"
        },
        {
          "name": "day",
          "type": "uint256"
        },
        {
          "name": "hour",
          "type": "uint256"
        },
        {
          "name": "minute",
          "type": "uint256"
        },
        {
          "name": "second",
          "type": "uint256"
        }
      ],
      "payable": false,
      "stateMutability": "view",
      "type": "function",
      "signature": "0x4a291142"
    },
    {
      "constant": true,
      "inputs": [
        {
          "name": "",
          "type": "uint256"
        }
      ],
      "name": "pictureHashes",
      "outputs": [
        {
          "name": "",
          "type": "bytes32"
        }
      ],
      "payable": false,
      "stateMutability": "view",
      "type": "function",
      "signature": "0x6a48b4cf"
    },
    {
      "constant": true,
      "inputs": [],
      "name": "concatDateString",
      "outputs": [
        {
          "name": "",
          "type": "string"
        }
      ],
      "payable": false,
      "stateMutability": "view",
      "type": "function",
      "signature": "0x6d1f54c9"
    },
    {
      "constant": true,
      "inputs": [],
      "name": "pictureCount",
      "outputs": [
        {
          "name": "",
          "type": "uint256"
        }
      ],
      "payable": false,
      "stateMutability": "view",
      "type": "function",
      "signature": "0x89b7e978"
    },
    {
      "inputs": [],
      "payable": false,
      "stateMutability": "nonpayable",
      "type": "constructor",
      "signature": "constructor"
    },
    {
      "constant": false,
      "inputs": [
        {
          "name": "fileHash",
          "type": "string"
        },
        {
          "name": "fileName",
          "type": "string"
        }
      ],
      "name": "submitPicture",
      "outputs": [
        {
          "name": "pictureId",
          "type": "uint256"
        }
      ],
      "payable": false,
      "stateMutability": "nonpayable",
      "type": "function",
      "signature": "0x2a1489f4"
    },
    {
      "constant": true,
      "inputs": [],
      "name": "getPictureHashes",
      "outputs": [
        {
          "name": "",
          "type": "bytes32[]"
        }
      ],
      "payable": false,
      "stateMutability": "view",
      "type": "function",
      "signature": "0xae103bdd"
    },
    {
      "constant": true,
      "inputs": [],
      "name": "getPictureDates",
      "outputs": [
        {
          "name": "",
          "type": "uint256[]"
        }
      ],
      "payable": false,
      "stateMutability": "view",
      "type": "function",
      "signature": "0x6520a149"
    },
    {
      "constant": true,
      "inputs": [
        {
          "name": "_allegedOwner",
          "type": "address"
        },
        {
          "name": "_fileHash",
          "type": "string"
        }
      ],
      "name": "verifyOwnership",
      "outputs": [
        {
          "name": "",
          "type": "uint256"
        }
      ],
      "payable": false,
      "stateMutability": "view",
      "type": "function",
      "signature": "0x30c697d3"
    },
    {
      "constant": false,
      "inputs": [],
      "name": "stopContract",
      "outputs": [],
      "payable": false,
      "stateMutability": "nonpayable",
      "type": "function",
      "signature": "0x12253a6c"
    }
  ],
  "bytecode": "0x60806040526000600760006101000a81548160ff02191690831515021790555034801561002b57600080fd5b506000808190555033600760016101000a81548173ffffffffffffffffffffffffffffffffffffffff021916908373ffffffffffffffffffffffffffffffffffffffff1602179055506119ea806100836000396000f3fe6080604052600436106100af576000357c0100000000000000000000000000000000000000000000000000000000900463ffffffff168063025e7c27146100b45780630c55699c1461012f57806312253a6c1461015a5780632a1489f41461017157806330c697d3146102e45780634a291142146103e05780636520a149146104f85780636a48b4cf146105645780636d1f54c9146105b357806389b7e97814610643578063ae103bdd1461066e575b600080fd5b3480156100c057600080fd5b506100ed600480360360208110156100d757600080fd5b81019080803590602001909291905050506106da565b604051808273ffffffffffffffffffffffffffffffffffffffff1673ffffffffffffffffffffffffffffffffffffffff16815260200191505060405180910390f35b34801561013b57600080fd5b50610144610718565b6040518082815260200191505060405180910390f35b34801561016657600080fd5b5061016f61071e565b005b34801561017d57600080fd5b506102ce6004803603604081101561019457600080fd5b81019080803590602001906401000000008111156101b157600080fd5b8201836020820111156101c357600080fd5b803590602001918460018302840111640100000000831117156101e557600080fd5b91908080601f016020809104026020016040519081016040528093929190818152602001838380828437600081840152601f19601f8201169050808301925050505050505091929192908035906020019064010000000081111561024857600080fd5b82018360208201111561025a57600080fd5b8035906020019184600183028401116401000000008311171561027c57600080fd5b91908080601f016020809104026020016040519081016040528093929190818152602001838380828437600081840152601f19601f820116905080830192505050505050509192919290505050610797565b6040518082815260200191505060405180910390f35b3480156102f057600080fd5b506103ca6004803603604081101561030757600080fd5b81019080803573ffffffffffffffffffffffffffffffffffffffff1690602001909291908035906020019064010000000081111561034457600080fd5b82018360208201111561035657600080fd5b8035906020019184600183028401116401000000008311171561037857600080fd5b91908080601f016020809104026020016040519081016040528093929190818152602001838380828437600081840152601f19601f82011690508083019250505050505050919291929050505061098a565b6040518082815260200191505060405180910390f35b3480156103ec57600080fd5b506104196004803603602081101561040357600080fd5b8101908080359060200190929190505050610af1565b604051808a8152602001806020018973ffffffffffffffffffffffffffffffffffffffff1673ffffffffffffffffffffffffffffffffffffffff16815260200188815260200187815260200186815260200185815260200184815260200183815260200182810382528a818151815260200191508051906020019080838360005b838110156104b557808201518184015260208101905061049a565b50505050905090810190601f1680156104e25780820380516001836020036101000a031916815260200191505b509a505050505050505050505060405180910390f35b34801561050457600080fd5b5061050d610bf7565b6040518080602001828103825283818151815260200191508051906020019060200280838360005b83811015610550578082015181840152602081019050610535565b505050509050019250505060405180910390f35b34801561057057600080fd5b5061059d6004803603602081101561058757600080fd5b8101908080359060200190929190505050610ee7565b6040518082815260200191505060405180910390f35b3480156105bf57600080fd5b506105c8610f0a565b6040518080602001828103825283818151815260200191508051906020019080838360005b838110156106085780820151818401526020810190506105ed565b50505050905090810190601f1680156106355780820380516001836020036101000a031916815260200191505b509250505060405180910390f35b34801561064f57600080fd5b50610658610fa8565b6040518082815260200191505060405180910390f35b34801561067a57600080fd5b50610683610fae565b6040518080602001828103825283818151815260200191508051906020019060200280838360005b838110156106c65780820151818401526020810190506106ab565b505050509050019250505060405180910390f35b6002818154811015156106e957fe5b906000526020600020016000915054906101000a900473ffffffffffffffffffffffffffffffffffffffff1681565b60045481565b3373ffffffffffffffffffffffffffffffffffffffff16600760019054906101000a900473ffffffffffffffffffffffffffffffffffffffff1673ffffffffffffffffffffffffffffffffffffffff1614151561077a57600080fd5b6001600760006101000a81548160ff021916908315150217905550565b6000826107a381611174565b156107ad57600080fd5b6000816040516020018082805190602001908083835b6020831015156107e857805182526020820191506020810190506020830392506107c3565b6001836020036101000a03801982511681845116808217855250505050505090500191505060405160208183030381529060405280519060200120905060008090505b60005481101561086557600160008281526020019081526020016000206000015482141561085857600080fd5b808060010191505061082b565b5061086f84611174565b15151561087b57600080fd5b600760009054906101000a900460ff1615151561089757600080fd5b6000856040516020018082805190602001908083835b6020831015156108d257805182526020820191506020810190506020830392506108ad565b6001836020036101000a038019825116818451168082178552505050505050905001915050604051602081830303815290604052805190602001209050610919818661119a565b935060023390806001815401808255809150509060018203906000526020600020016000909192909190916101000a81548173ffffffffffffffffffffffffffffffffffffffff021916908373ffffffffffffffffffffffffffffffffffffffff1602179055505050505092915050565b6000600760009054906101000a900460ff161515156109a857600080fd5b6109b182611174565b1515156109bd57600080fd5b6000826040516020018082805190602001908083835b6020831015156109f857805182526020820191506020810190506020830392506109d3565b6001836020036101000a038019825116818451168082178552505050505050905001915050604051602081830303815290604052805190602001209050600080905060008090505b600054811015610ae5578260016000838152602001908152602001600020600001541415610ad8578573ffffffffffffffffffffffffffffffffffffffff166001600083815260200190815260200160002060020160009054906101000a900473ffffffffffffffffffffffffffffffffffffffff1673ffffffffffffffffffffffffffffffffffffffff161415610ad757600191505b5b8080600101915050610a40565b50809250505092915050565b6001602052806000526040600020600091509050806000015490806001018054600181600116156101000203166002900480601f016020809104026020016040519081016040528092919081815260200182805460018160011615610100020316600290048015610ba35780601f10610b7857610100808354040283529160200191610ba3565b820191906000526020600020905b815481529060010190602001808311610b8657829003601f168201915b5050505050908060020160009054906101000a900473ffffffffffffffffffffffffffffffffffffffff16908060030154908060040154908060050154908060060154908060070154908060080154905089565b6060600760009054906101000a900460ff16151515610c1557600080fd5b600080905060008090505b600280549050811015610cb0573373ffffffffffffffffffffffffffffffffffffffff16600282815481101515610c5357fe5b9060005260206000200160009054906101000a900473ffffffffffffffffffffffffffffffffffffffff1673ffffffffffffffffffffffffffffffffffffffff161415610ca35781806001019250505b8080600101915050610c20565b50606060068202604051908082528060200260200182016040528015610ce55781602001602082028038833980820191505090505b509050600080905060008090505b600280549050811015610edd573373ffffffffffffffffffffffffffffffffffffffff16600282815481101515610d2657fe5b9060005260206000200160009054906101000a900473ffffffffffffffffffffffffffffffffffffffff1673ffffffffffffffffffffffffffffffffffffffff161415610ed05760016000828152602001908152602001600020600301548383815181101515610d9257fe5b9060200190602002018181525050818060010192505060016000828152602001908152602001600020600401548383815181101515610dcd57fe5b9060200190602002018181525050818060010192505060016000828152602001908152602001600020600501548383815181101515610e0857fe5b9060200190602002018181525050818060010192505060016000828152602001908152602001600020600601548383815181101515610e4357fe5b9060200190602002018181525050818060010192505060016000828152602001908152602001600020600701548383815181101515610e7e57fe5b9060200190602002018181525050818060010192505060016000828152602001908152602001600020600801548383815181101515610eb957fe5b906020019060200201818152505081806001019250505b8080600101915050610cf3565b5081935050505090565b600381815481101515610ef657fe5b906000526020600020016000915090505481565b60068054600181600116156101000203166002900480601f016020809104026020016040519081016040528092919081815260200182805460018160011615610100020316600290048015610fa05780601f10610f7557610100808354040283529160200191610fa0565b820191906000526020600020905b815481529060010190602001808311610f8357829003601f168201915b505050505081565b60005481565b6060600760009054906101000a900460ff16151515610fcc57600080fd5b600080905060008090505b600280549050811015611067573373ffffffffffffffffffffffffffffffffffffffff1660028281548110151561100a57fe5b9060005260206000200160009054906101000a900473ffffffffffffffffffffffffffffffffffffffff1673ffffffffffffffffffffffffffffffffffffffff16141561105a5781806001019250505b8080600101915050610fd7565b506060816040519080825280602002602001820160405280156110995781602001602082028038833980820191505090505b509050600080905060008090505b60028054905081101561116a573373ffffffffffffffffffffffffffffffffffffffff166002828154811015156110da57fe5b9060005260206000200160009054906101000a900473ffffffffffffffffffffffffffffffffffffffff1673ffffffffffffffffffffffffffffffffffffffff16141561115d576001600082815260200190815260200160002060000154838381518110151561114657fe5b906020019060200201818152505081806001019250505b80806001019150506110a7565b5081935050505090565b6000606082905060008151141561118f576001915050611195565b60009150505b919050565b6000600760009054906101000a900460ff161515156111b857600080fd5b60004290506111c681611468565b600560008201518160000160006101000a81548161ffff021916908361ffff16021790555060208201518160000160026101000a81548160ff021916908360ff16021790555060408201518160000160036101000a81548160ff021916908360ff16021790555060608201518160000160046101000a81548160ff021916908360ff16021790555060808201518160000160056101000a81548160ff021916908360ff16021790555060a08201518160000160066101000a81548160ff021916908360ff16021790555060c08201518160000160076101000a81548160ff021916908360ff1602179055509050506000549150610120604051908101604052808581526020018481526020013373ffffffffffffffffffffffffffffffffffffffff168152602001600560000160009054906101000a900461ffff1661ffff168152602001600560000160029054906101000a900460ff1660ff168152602001600560000160039054906101000a900460ff1660ff168152602001600560000160049054906101000a900460ff1660ff168152602001600560000160059054906101000a900460ff1660ff168152602001600560000160069054906101000a900460ff1660ff16815250600160008481526020019081526020016000206000820151816000015560208201518160010190805190602001906113c99291906118c5565b5060408201518160020160006101000a81548173ffffffffffffffffffffffffffffffffffffffff021916908373ffffffffffffffffffffffffffffffffffffffff160217905550606082015181600301556080820151816004015560a0820151816005015560c0820151816006015560e082015181600701556101008201518160080155905050600160008082825401925050819055505092915050565b611470611945565b600080905060008061148185611609565b846000019061ffff16908161ffff16815250506114a36107b261ffff166116b4565b6114b4856000015161ffff166116b4565b039150816301e285000283019250816107b285600001510361ffff16036301e1338002830192506000600191505b600c8260ff1611151561153a576114fd8286600001516116ed565b60ff16620151800290508584820111156115285781856020019060ff16908160ff168152505061153a565b808401935081806001019250506114e2565b600191505b611551856020015186600001516116ed565b60ff168260ff16111515611598578584620151800111156115835781856040019060ff16908160ff1681525050611598565b6201518084019350818060010192505061153f565b6115a1866117b9565b856060019060ff16908160ff16815250506115bb866117e6565b856080019060ff16908160ff16815250506115d586611807565b8560a0019060ff16908160ff16815250506115ef8661181d565b8560c0019060ff16908160ff168152505050505050919050565b600080600090506000806301e133808581151561162257fe5b046107b261ffff1601915061163c6107b261ffff166116b4565b6116498361ffff166116b4565b039050806301e285000283019250806107b2830361ffff16036301e1338002830192505b848311156116a95761168160018303611844565b15611694576301e285008303925061169e565b6301e13380830392505b60018203915061166d565b819350505050919050565b6000600182039150610190828115156116c957fe5b046064838115156116d657fe5b046004848115156116e357fe5b0403019050919050565b600060018360ff161480611704575060038360ff16145b80611712575060058360ff16145b80611720575060078360ff16145b8061172e575060088360ff16145b8061173c5750600a8360ff16145b8061174a5750600c8360ff16145b1561175857601f90506117b3565b60048360ff16148061176d575060068360ff16145b8061177b575060098360ff16145b806117895750600b8360ff16145b1561179757601e90506117b3565b6117a082611844565b156117ae57601d90506117b3565b601c90505b92915050565b60006018603c80848115156117ca57fe5b048115156117d457fe5b048115156117de57fe5b069050919050565b6000603c80838115156117f557fe5b048115156117ff57fe5b069050919050565b6000603c8281151561181557fe5b069050919050565b600060076004620151808481151561183157fe5b040181151561183c57fe5b069050919050565b60008060048361ffff1681151561185757fe5b0661ffff1614151561186c57600090506118c0565b600060648361ffff1681151561187e57fe5b0661ffff1614151561189357600190506118c0565b60006101908361ffff168115156118a657fe5b0661ffff161415156118bb57600090506118c0565b600190505b919050565b828054600181600116156101000203166002900490600052602060002090601f016020900481019282601f1061190657805160ff1916838001178555611934565b82800160010185558215611934579182015b82811115611933578251825591602001919060010190611918565b5b5090506119419190611999565b5090565b60e060405190810160405280600061ffff168152602001600060ff168152602001600060ff168152602001600060ff168152602001600060ff168152602001600060ff168152602001600060ff1681525090565b6119bb91905b808211156119b757600081600090555060010161199f565b5090565b9056fea165627a7a723058200af4072f88b1a9738385ff44145dbc0db908c5dffe20657d62b8566713c1ae550029",
  "source": "pragma solidity ^0.5.0;\n\nimport { DateTime } from \"../contracts/DateTime.sol\";\n\ncontract ProofOfExistence  {\n\n  struct Picture{\n    bytes32 fileHash; \n    string fileName;\n    address fileOwner;\n    uint year;\n    uint month;\n    uint day;\n    uint hour;\n    uint minute;\n    uint second;\t\n  }\n \n  uint256 public pictureCount;\n\n  mapping(uint256 => Picture) public pictures;\n\n  address[] public owners; // used to store the owners in the array location of their picture hashes.\n\n  bytes32[] public pictureHashes; // used for returning set of owners' pictures\n\n  uint public x;\n \n  DateTime._DateTime private dateTimeStruct;\n  string public concatDateString;\n\n  bool isStopped = false;\n  address contractOwner;\n\n  /* Constructor     \n  */ \n\n  constructor() public {\n      pictureCount = 0;\n      contractOwner = msg.sender;\t\n  }\n\n \n  // This public function is called to upload a \"picture\" (hash string) to the blockchain\n  /* @param fileHash - this is the hash of the file stored in IPFS, or a normal text string for now.\n     @param fileName - name of the file to be stored\n     @returns pictureId - Id of pic stored \n  */ \n\n  function submitPicture(string memory fileHash, string memory fileName)\n    validNewPicSubmission(fileHash)\n    public returns (uint256 pictureId){\n\t\t\n\trequire(!emptyString(fileName));\n\trequire(!isStopped);\n      \n\tbytes32 fileHashBytes32 = keccak256(abi.encodePacked(fileHash));            \t\n\t\n      pictureId = addPicture(fileHashBytes32, fileName);\n      //owners[pictureId] = msg.sender;\n      owners.push(msg.sender);\n\n  }\n\n  // Modifier that validates that this picture has not already been stored. Must be new.\n  /* @param fileHash - this is the hash of the file stored in IPFS, or a normal text string for now.     \n  */ \n\n  modifier validNewPicSubmission(string memory fileHash) {\n\n    // First check for empty string.\n    if (emptyString(fileHash)) {\n\trevert(); //throw exception and return ether to caller. \n    }\n\n    // Get the hash.\n    bytes32 fileHashBytes32 = keccak256(abi.encodePacked(fileHash));\n\n    // Loop through the existing hashes to see if it's already there.\n    for (uint i = 0; i < pictureCount; i++) {\n        if (fileHashBytes32 == pictures[i].fileHash) {\n\t  revert(); //throw exception and return ether to caller. \t\n\t}\n    }\n    _; // continue with code of calling function\n\t\n  }\n\n  /* This internal function is the one that actually creates the entry on the blockchain\n     It can only be called by submitPicture().\n     @param fileHash - this is the hash of the file stored in IPFS, or a normal text string for now.\n     @param fileName - name of the file to be stored\n     @returns pictureId - Id of pic stored \n  */ \n\n  function addPicture(bytes32 _fileHash, string memory _fileName)\n    internal returns (uint256 pictureId) {\n\n    require(!isStopped); // still check for emergency stop, just in case someone can illegally reach this method.\n\n    // Get the current datetime to store with the picture. Calls the DateTime library. \n  \n    uint _dateCreated = now;\n    dateTimeStruct = DateTime.parseTimestamp(_dateCreated); \n    \n    // Add the picture entry to the struct.\n\n    pictureId = pictureCount;\n    pictures[pictureId] =\n      Picture({\n          fileHash: \t_fileHash,\n          fileName: \t_fileName,\n\t  fileOwner: \tmsg.sender,\n          year: \tdateTimeStruct.year,\n\t  month: \tdateTimeStruct.month,\n\t  day: \t\tdateTimeStruct.day,\n\t  hour: \tdateTimeStruct.hour,\n\t  minute: \tdateTimeStruct.minute,\n\t  second:\tdateTimeStruct.second\n\t\n        });\n\n    pictureCount += 1;\n  }\n\n \n /* Public function to find the hashes of the pictures belonging to the sender and return as byte32 array\n    Not a transaction. Uses no ether.     \n    @Returns = bytes32 array of hashes \n */  \n \n  function getPictureHashes() public view returns (bytes32[] memory) {\n\n\trequire(!isStopped);\n\n\t// Count number of times the sender's address occurs in owners array. Same as number of pics stored for the account.\n\tuint counter = 0;\n\tfor(uint i = 0; i < owners.length; i++){\n\t  if (owners[i] == msg.sender){\n\t\tcounter++;\n\t  }\n\t}\n\n\t// create array for the picture hashes, using size of counter. Will send this to UI.\n\t\n\tbytes32[] memory pictureHashes = new bytes32[](counter);\t\n\n\tuint arrayIndex = 0;\n\n\tfor(uint i = 0; i < owners.length; i++){\n\n\t  if (owners[i] == msg.sender){ // find the positions of the owner's entries in owners array in storage.\n\t \n\t      pictureHashes[arrayIndex] = pictures[i].fileHash; // use the position (i) to get hash from pictures struct\n\t\t      \t\n\t      arrayIndex++;\n\t      \t\t\n\t  }\n\n\t}\n\n\treturn pictureHashes;\t  \n\t\n  }\n\n /* Public function to find the datetime stamp of the pictures belonging to the sender and return as byte32 array\n    Not a transaction. Uses no ether.     \n    @Returns = uint array with date values.\n */\n\n function getPictureDates() public view returns (uint[] memory) {\n\n\trequire(!isStopped);\n\n\t// Count number of times this address occurs in owners array. Equals number of pics stored for the account.\n\tuint counter = 0;\n\tfor(uint i = 0; i < owners.length; i++){\n\t  if (owners[i] == msg.sender){\n\t\tcounter++;\n\t  }\n\t}\t\n\n\t// create array of dateTime stamps, using size of counter. Will send this to UI.\n\tuint[] memory pictureDates = new uint[](counter * 6);\t// multiple by 6. Place for Y, M, D, Hr, Min, Sec.\n\n\tuint arrayIndex = 0;\n\t\n\tfor(uint i = 0; i < owners.length; i++){\n          if (owners[i] == msg.sender){\n            \n              pictureDates[arrayIndex] = pictures[i].year;\n\t      arrayIndex++;  \n\t      pictureDates[arrayIndex] = pictures[i].month;\n\t      arrayIndex++;\n\t      pictureDates[arrayIndex] = pictures[i].day;\n\t      arrayIndex++;\n\t      pictureDates[arrayIndex] = pictures[i].hour;\n\t      arrayIndex++;\n\t      pictureDates[arrayIndex] = pictures[i].minute;\n\t      arrayIndex++;\n\t      pictureDates[arrayIndex] = pictures[i].second;\t\n\t      \n\t      arrayIndex++;\n          }\n        }\n\n\treturn pictureDates;\t  \n\n  }\n\n  \n /* Public function used to verify ownership of a picture hash\n    Not a transaction. Uses no ether.\n    @param - address of alleged owner\n    @param - file hash\n    @Returns - uint value for true or false. Boolean was giving errors for some reason.\n */\n\n  function verifyOwnership(address _allegedOwner, string memory _fileHash) \n    public view returns(uint) {\n\n    // validations\n    require(!isStopped);\n    require(!emptyString(_fileHash));\n  \n    bytes32 fileHashBytes32 = keccak256(abi.encodePacked(_fileHash));\n    \n    uint returnValue = 0; // initialise to zero which means \"false\" or no match.\n\t\n    // go through all the entries and check if a hash and owner match is found.\n    for(uint i = 0; i < pictureCount; i++) {\n\n      if (pictures[i].fileHash == fileHashBytes32) {\n\t\n        if (pictures[i].fileOwner == _allegedOwner) {          \n          returnValue = 1; // set to one meaning \"true\" a match has been found.\n        }\n        \n      }\n\n    }\n    return returnValue;\n\n  }\n\n  /* Utility validation function for checking empty input strings\n     @param - input string to validate\n     @return - true or false\n  */\n\n  function emptyString(string memory inputString) internal pure returns (bool) {\n    bytes memory tempEmptyStringTest = bytes(inputString);\n\tif (tempEmptyStringTest.length == 0) {\n\t   return true;\t\n\t}\n\treturn false;\n  }\n \n\n  /* Emergency stop function.\n     Can only be called by the contract owner.\n  */\n\n  function stopContract() public {\n    require(contractOwner == msg.sender);\n    isStopped = true;\n  }\t\t\n\n\n\n}\n",
  "sourcePath": "/home/waseem/Documents/FinalProjectPOE/contracts/ProofOfExistence.sol",
  "compiler": {
    "name": "solc",
    "version": "0.5.0+commit.1d4f565a.Emscripten.clang"
  },
  "schemaVersion": "3.0.0",
  "updatedAt": "2019-01-25T17:05:17.744Z",
  "devdoc": {
    "methods": {}
  },
  "userdoc": {
    "methods": {}
  }
}